:100000000C9435000C94F8000C941E010C945D00C7
:100010000C945D000C945D000C945D000C945D00EC
:100020000C945D000C945D000C945D000C945D00DC
:100030000C945D000C945D000C945D000C945D00CC
:100040000C94CE000C945D000C9468030C945D003D
:100050000C945D000C9496020C945D000C945D0071
:100060000C945D000C945D008F0511241FBECFEF32
:10007000D4E0DEBFCDBF11E0A0E0B1E0E4ECFCE0F5
:1000800002C005900D92AC3AB107D9F712E0ACEA84
:10009000B1E001C01D92A836B107E1F710E0CAE651
:1000A000D0E004C02297FE010E945C06C836D1074A
:1000B000C9F70E9439040C9460060C940000289A39
:1000C0002C9808951092D3011092D5010E945F00E0
:1000D0001092D80186ED91E00E9445041092B9017A
:1000E000E091B701F091B8010480F581E02D87EB34
:1000F00091E009951092D00186EC91E00E944B04AA
:100100001092C501E091BB01F091BC010280F38126
:10011000E02D8BEB91E009950895F89486E08093AB
:10012000690083E08DBB53985B9A52985A9A56980F
:100130005E9A57985F9A209A219A229A239A249A33
:10014000259A289A299A2A9A2B9A2C982D9884B520
:10015000836084BD85B5826085BDEEE6F0E0808178
:10016000816080838FEF9FEF9093B5018093B401FE
:100170009093B1018093B0010E947F020E946200BF
:100180000E945D05789460E875E280E090E00E944E
:10019000F30289E391E00E94AB0308951F920F924E
:1001A0000FB60F9211242F933F934F935F936F934A
:1001B0007F938F939F93AF93BF93EF93FF9386ECBF
:1001C00091E00E9433058BEB91E00E943305FF9193
:1001D000EF91BF91AF919F918F917F916F915F91BF
:1001E0004F913F912F910F900FBE0F901F90189538
:1001F0001F920F920FB60F9211242F933F934F939C
:100200005F936F937F938F939F93AF93BF93EF937E
:10021000FF930E9462004A9BFECFFF91EF91BF9136
:10022000AF919F918F917F916F915F914F913F918E
:100230002F910F900FBE0F901F9018951F920F9245
:100240000FB60F9211242F933F934F935F936F93A9
:100250007F938F939F93AF93BF93EF93FF934B99AC
:1002600063C02091D3012F5F2093D30130E08091B0
:10027000D401992787FD90958217930764F4109213
:10028000D30185B191E0892785B985B120E1822725
:1002900085B99093D5018091AC019091AD018130E9
:1002A000910581F1029709F082C08091CC01909173
:1002B000CD019093C9018093C8011092CF01109293
:1002C000CE011092CB011092CA0121E02093D001FF
:1002D0008091D501882399F08091C1019091C2014C
:1002E0009093BE018093BD011092C4011092C3018E
:1002F0001092C0011092BF012093C50158C02A98E6
:100300002B9A55C086ED91E00E9418058091D50189
:10031000882309F44CC087EB91E00E9418051A99D4
:1003200046C01092D50143C08091AC019091AD01BF
:100330008130910541F10297A1F58091CE01909114
:10034000CF012091C8013091C901820F931F909372
:10035000CB018093CA018091D501882389F08091D7
:10036000C3019091C4012091BD013091BE01820F63
:10037000931F9093C0018093BF011092D50111C0CB
:100380002A9A2B980EC086ED91E00E944504E091D8
:10039000B701F091B8010480F581E02D87EB91E081
:1003A00009958091D4018F3F11F40E945F00FF9165
:1003B000EF91BF91AF919F918F917F916F915F91DD
:1003C0004F913F912F910F900FBE0F901F90189556
:1003D000CF93DF930E945D058091DA019091DB015C
:1003E000CFEFDFE0BE01681B790B82EB91E00E944A
:1003F00072058091DC019091DD01BE01681B790BD3
:100400008EEA91E00E9472052091DC013091DD01BD
:1004100080E090E1821B930B9093CD018093CC01FF
:100420009093C2018093C1010E94300318161906EF
:100430000CF062C00E9441038E32910549F0CA97C8
:1004400069F45A980E94CE005A9A0E94CE0006C0C3
:100450008BB198E089278BB90E941E0180E491E05E
:100460000E94AB0381ED91E00E94F30485E491E0EA
:100470000E94AB0388E491E00E94AB0386ED91E01B
:100480000E94810485E491E00E94AB038DE491E039
:100490000E94AB0386EC91E00E94AB0485E491E0FE
:1004A0000E94AB0382E591E00E94AB03E091BB01A7
:1004B000F091BC010680F781E02D8BEB91E009956E
:1004C00085E491E00E94AB0363B170E080E090E0CE
:1004D0000E9432048091AC019091AD018130910570
:1004E00029F0029739F481E691E002C089E591E0B4
:1004F0000E94AB030E94A703DF91CF910895EAE722
:10050000F0E0808187608083ACE7B0E08C9180640C
:100510008C938081806280838081806880838081E9
:100520008064808380818860808308951F920F9209
:100530000FB60F9211242F933F934F938F939F9356
:10054000EF93FF9340917C00477080917800209159
:100550007900E091E301F0E0EE0FFF1FE152FE4F62
:1005600090E0922B20813181820F931F91838083B1
:100570004093E30191E0940F923019F58091DE01F0
:100580008F5F843019F08093DE011AC01092DE0173
:100590008091DF019091E0019093DB018093DA017B
:1005A0001092E0011092DF018091E1019091E2014F
:1005B0009093DD018093DC011092E2011092E10141
:1005C00090E080917C00887F892B80937C00FF9154
:1005D000EF919F918F914F913F912F910F900FBE6F
:1005E0000F901F901895CF92DF92EF92FF926B01C0
:1005F0007C0122E030E040E050E00E94F005205C09
:100600003D4B404F5F4FCA01B901A70196010E94BF
:10061000F005DA01C9010197A109B109892F9A2FC3
:10062000AB2FBB27A7FDBA958093C500215020931F
:10063000C400E1ECF0E0808180618083808188608B
:100640008083808180688083FF90EF90DF90CF90DF
:1006500008959091C00095FFFCCF8093C600089547
:100660008091E6019091E70180589F4F2091E4012D
:100670003091E501821B930B60E870E00E94BA059F
:1006800008958091E4019091E5012091E601309177
:10069000E7012817390781F0FC01E851FE4F20815E
:1006A000019660E870E00E94BA059093E50180939E
:1006B000E401822F90E008958FEF9FEF08958091DD
:1006C000E4019091E5019093E7018093E60108959C
:1006D0001F920F920FB60F9211242F933F934F93B7
:1006E0005F936F937F938F939F93AF93BF93EF939A
:1006F000E091C6002091E6013091E701C901019621
:1007000060E870E00E94BA054091E4015091E50173
:100710008417950741F0D901A851BE4FEC939093EF
:10072000E7018093E601EF91BF91AF919F918F9187
:100730007F916F915F914F913F912F910F900FBEDD
:100740000F901F90189508950E94290308958AE03C
:100750000E9429030895CF93DF93EC0189918823A8
:1007600019F00E942903FACFDF91CF910895A0E2FA
:10077000B0E0EDEBF3E00C94110629013A016115AC
:1007800071058105910521F480E30E94290338C099
:100790009E012F5F3F4F7901812C912C54018901DB
:1007A0003FEF831A930AA30AB30AA30192010E949E
:1007B000CE05F70161937F01B901CA016115710589
:1007C0008105910569F775016401F1E0CF1AD1083F
:1007D000E108F108F801EC0DFD1D80818A3010F46C
:1007E000805D01C0895C0E94290321E0C21AD10802
:1007F000E108F1083FEFC316D306E306F30651F70D
:10080000A096E0E10C942D06CF92DF92EF92FF923A
:100810006B017C0197FF0BC08DE20E942903F094CD
:10082000E094D094C094C11CD11CE11CF11C2AE0BE
:1008300030E040E050E0C701B6010E94B703FF90EE
:10084000EF90DF90CF90089520E130E040E050E05D
:100850000E94B703089528E030E040E050E00E9495
:10086000B703089522E030E040E050E00E94B70373
:1008700008950E948D000E94E801FDCF83B1869506
:100880008170089529982D9A0895299A2D98089590
:1008900029982D9A0895299A2D98089583B18695BF
:1008A000817008952A982B9A08952A9A2B98089572
:1008B00083B182FB882780F908952A982B9A08959E
:1008C0002A9A2B98089583B182FB882780F908958E
:1008D000660F672F661F770B71956093D901609340
:1008E000BA0108956034710530F0660F672F661FF6
:1008F000770B719502C06FEF7FEF6093D40108957D
:100900000895CF93DF93EC0182E291E00E94AB0364
:100910006A8170E080E090E00E94040480E091E051
:100920000E94AB036B8170E080E090E00E940404C1
:10093000E881F9810190F081E02DCE0109958823AD
:1009400019F089E091E002C08EE091E00E94AB03D3
:10095000DF91CF910895CF93DF93EC0182E191E095
:100960000E94AB036A817B8180E090E00E940404D6
:1009700088E191E00E94AB036C817D8180E090E092
:100980000E94040480E291E00E94AB0368857985AF
:1009900080E090E00E94040480E091E00E94AB03BC
:1009A0006E817F8180E090E00E9404048A85882324
:1009B00019F087E291E002C080E391E00E94AB036E
:1009C000E881F9810480F581E02DCE010995882325
:1009D00019F089E091E002C08EE091E00E94AB0343
:1009E000DF91CF910895CF93DF93EC0182E291E004
:1009F0000E94AB036A8170E080E090E00E940404F2
:100A000080E091E00E94AB036B81772767FD7095D2
:100A1000872F972F0E940404189B03C089E091E060
:100A200002C08EE091E00E94AB03DF91CF91089568
:100A3000DC0112962C9112972F5F12962C9312972D
:100A400013963C911397ED91FC911197321730F466
:100A500012961C920280F381E02D03C00480F58180
:100A6000E02D09950895CF93DF93EC018A858823C3
:100A700009F1888599850196998788872A813B8124
:100A80008217930741F4E881F9810190F081E02D0C
:100A9000CE0109950FC0288539858C819D81281745
:100AA000390741F4E881F9810280F381E02DCE011C
:100AB00009951A86DF91CF9108954E9903C081E080
:100AC00090E00BC04F9907C0F8940E9462004F9BC2
:100AD000FECF7894089582E090E09093AD018093EA
:100AE000AC010895DC0112962D913C911397FB0106
:100AF000E21BF30B9F01F7FF03C0319521953109EC
:100B0000203231055CF0DC0113967C936E931297D2
:100B1000ED91FC910190F081E02D099508958DE60D
:100B200091E09093D7018093D60189E791E090936B
:100B3000D2018093D1018FE791E09093C701809318
:100B4000C6018BE891E09093BC018093BB0187E9DB
:100B500091E09093B8018093B70189EA91E0909376
:100B6000B3018093B20183EA91E09093AF01809347
:100B7000AE01089597FB072E16F4009407D077FD79
:100B800009D00E94460607FC05D03EF49095819559
:100B90009F4F0895709561957F4F0895A1E21A2E99
:100BA000AA1BBB1BFD010DC0AA1FBB1FEE1FFF1F11
:100BB000A217B307E407F50720F0A21BB30BE40B61
:100BC000F50B661F771F881F991F1A9469F76095A8
:100BD0007095809590959B01AC01BD01CF01089562
:100BE000052E97FB1EF400940E94070657FD07D0C0
:100BF0000E94CE0507FC03D04EF40C9407065095D6
:100C00004095309521953F4F4F4F5F4F08959095F8
:100C10008095709561957F4F8F4F9F4F08952F92CC
:100C20003F924F925F926F927F928F929F92AF927C
:100C3000BF92CF92DF92EF92FF920F931F93CF93C9
:100C4000DF93CDB7DEB7CA1BDB0B0FB6F894DEBF60
:100C50000FBECDBF09942A88398848885F846E8486
:100C60007D848C849B84AA84B984C884DF80EE80D0
:100C7000FD800C811B81AA81B981CE0FD11D0FB6D9
:100C8000F894DEBF0FBECDBFED010895AA1BBB1BBC
:100C900051E107C0AA1FBB1FA617B70710F0A61B7C
:100CA000B70B881F991F5A95A9F780959095BC019D
:100CB000CD010895EE0FFF1F0590F491E02D0994EA
:040CC000F894FFCFD6
:100CC4002C2076616C75652000206F666600206FAD
:100CD4006E007269736520002C2066616C6C2000C4
:100CE4002C20706F7320002072756E6E696E670021
:100CF4002073746F707065640068656C6C6F0A00B3
:100D04006469765B005D2000636E745B0064656CEF
:100D14005B007377696E675B0020636F756E742088
:100D2400002064656C61792000000000003E0442EC
:100D3400044504810400000000F30400000000489E
:100D4400044B044E04AB0400000000520455045844
:100D540004AB040000000063045D0460048104002B
:0C0D6400000000680400000000720400A1
:00000001FF
